{
  "_format": "hh-sol-artifact-1",
  "contractName": "VotingSystem",
  "sourceName": "contracts/VotingSysytem.sol",
  "abi": [
    {
      "inputs": [
        {
          "internalType": "string[]",
          "name": "candidateNames",
          "type": "string[]"
        }
      ],
      "stateMutability": "nonpayable",
      "type": "constructor"
    },
    {
      "inputs": [
        {
          "internalType": "uint256",
          "name": "",
          "type": "uint256"
        }
      ],
      "name": "candidates",
      "outputs": [
        {
          "internalType": "string",
          "name": "name",
          "type": "string"
        },
        {
          "internalType": "uint256",
          "name": "voteCount",
          "type": "uint256"
        }
      ],
      "stateMutability": "view",
      "type": "function"
    },
    {
      "inputs": [],
      "name": "endVoting",
      "outputs": [],
      "stateMutability": "nonpayable",
      "type": "function"
    },
    {
      "inputs": [],
      "name": "getCandidates",
      "outputs": [
        {
          "components": [
            {
              "internalType": "string",
              "name": "name",
              "type": "string"
            },
            {
              "internalType": "uint256",
              "name": "voteCount",
              "type": "uint256"
            }
          ],
          "internalType": "struct VotingSystem.Candidate[]",
          "name": "",
          "type": "tuple[]"
        }
      ],
      "stateMutability": "view",
      "type": "function"
    },
    {
      "inputs": [
        {
          "internalType": "address",
          "name": "",
          "type": "address"
        }
      ],
      "name": "hasVoted",
      "outputs": [
        {
          "internalType": "bool",
          "name": "",
          "type": "bool"
        }
      ],
      "stateMutability": "view",
      "type": "function"
    },
    {
      "inputs": [],
      "name": "owner",
      "outputs": [
        {
          "internalType": "address",
          "name": "",
          "type": "address"
        }
      ],
      "stateMutability": "view",
      "type": "function"
    },
    {
      "inputs": [
        {
          "internalType": "uint256",
          "name": "candidateIndex",
          "type": "uint256"
        }
      ],
      "name": "vote",
      "outputs": [],
      "stateMutability": "nonpayable",
      "type": "function"
    },
    {
      "inputs": [],
      "name": "votingOpen",
      "outputs": [
        {
          "internalType": "bool",
          "name": "",
          "type": "bool"
        }
      ],
      "stateMutability": "view",
      "type": "function"
    }
  ],
  "bytecode": "0x60806040523480156200001157600080fd5b506040516200148e3803806200148e8339818101604052810190620000379190620003ce565b336000806101000a81548173ffffffffffffffffffffffffffffffffffffffff021916908373ffffffffffffffffffffffffffffffffffffffff16021790555060005b81518110156200011c5760026040518060400160405280848481518110620000a757620000a66200041f565b5b60200260200101518152602001600081525090806001815401808255809150506001900390600052602060002090600202016000909190919091506000820151816000019081620000f9919062000699565b5060208201518160010155505080806200011390620007af565b9150506200007a565b506001600360006101000a81548160ff02191690831515021790555050620007fc565b6000604051905090565b600080fd5b600080fd5b600080fd5b6000601f19601f8301169050919050565b7f4e487b7100000000000000000000000000000000000000000000000000000000600052604160045260246000fd5b620001a38262000158565b810181811067ffffffffffffffff82111715620001c557620001c462000169565b5b80604052505050565b6000620001da6200013f565b9050620001e8828262000198565b919050565b600067ffffffffffffffff8211156200020b576200020a62000169565b5b602082029050602081019050919050565b600080fd5b600080fd5b600067ffffffffffffffff82111562000244576200024362000169565b5b6200024f8262000158565b9050602081019050919050565b60005b838110156200027c5780820151818401526020810190506200025f565b60008484015250505050565b60006200029f620002998462000226565b620001ce565b905082815260208101848484011115620002be57620002bd62000221565b5b620002cb8482856200025c565b509392505050565b600082601f830112620002eb57620002ea62000153565b5b8151620002fd84826020860162000288565b91505092915050565b60006200031d6200031784620001ed565b620001ce565b905080838252602082019050602084028301858111156200034357620003426200021c565b5b835b818110156200039157805167ffffffffffffffff8111156200036c576200036b62000153565b5b8086016200037b8982620002d3565b8552602085019450505060208101905062000345565b5050509392505050565b600082601f830112620003b357620003b262000153565b5b8151620003c584826020860162000306565b91505092915050565b600060208284031215620003e757620003e662000149565b5b600082015167ffffffffffffffff8111156200040857620004076200014e565b5b62000416848285016200039b565b91505092915050565b7f4e487b7100000000000000000000000000000000000000000000000000000000600052603260045260246000fd5b600081519050919050565b7f4e487b7100000000000000000000000000000000000000000000000000000000600052602260045260246000fd5b60006002820490506001821680620004a157607f821691505b602082108103620004b757620004b662000459565b5b50919050565b60008190508160005260206000209050919050565b60006020601f8301049050919050565b600082821b905092915050565b600060088302620005217fffffffffffffffffffffffffffffffffffffffffffffffffffffffffffffffff82620004e2565b6200052d8683620004e2565b95508019841693508086168417925050509392505050565b6000819050919050565b6000819050919050565b60006200057a620005746200056e8462000545565b6200054f565b62000545565b9050919050565b6000819050919050565b620005968362000559565b620005ae620005a58262000581565b848454620004ef565b825550505050565b600090565b620005c5620005b6565b620005d28184846200058b565b505050565b5b81811015620005fa57620005ee600082620005bb565b600181019050620005d8565b5050565b601f82111562000649576200061381620004bd565b6200061e84620004d2565b810160208510156200062e578190505b620006466200063d85620004d2565b830182620005d7565b50505b505050565b600082821c905092915050565b60006200066e600019846008026200064e565b1980831691505092915050565b60006200068983836200065b565b9150826002028217905092915050565b620006a4826200044e565b67ffffffffffffffff811115620006c057620006bf62000169565b5b620006cc825462000488565b620006d9828285620005fe565b600060209050601f831160018114620007115760008415620006fc578287015190505b6200070885826200067b565b86555062000778565b601f1984166200072186620004bd565b60005b828110156200074b5784890151825560018201915060208501945060208101905062000724565b868310156200076b578489015162000767601f8916826200065b565b8355505b6001600288020188555050505b505050505050565b7f4e487b7100000000000000000000000000000000000000000000000000000000600052601160045260246000fd5b6000620007bc8262000545565b91507fffffffffffffffffffffffffffffffffffffffffffffffffffffffffffffffff8203620007f157620007f062000780565b5b600182019050919050565b610c82806200080c6000396000f3fe608060405234801561001057600080fd5b506004361061007d5760003560e01c80633477ee2e1161005b5780633477ee2e146100ec5780638da5cb5b1461011d578063a95824b41461013b578063c3403ddf146101595761007d565b80630121b93f1461008257806306a49fce1461009e57806309eef43e146100bc575b600080fd5b61009c6004803603810190610097919061060f565b610163565b005b6100a661031b565b6040516100b391906107da565b60405180910390f35b6100d660048036038101906100d1919061085a565b610416565b6040516100e391906108a2565b60405180910390f35b6101066004803603810190610101919061060f565b610436565b604051610114929190610916565b60405180910390f35b6101256104f2565b6040516101329190610955565b60405180910390f35b610143610516565b60405161015091906108a2565b60405180910390f35b610161610529565b005b600360009054906101000a900460ff166101b2576040517f08c379a00000000000000000000000000000000000000000000000000000000081526004016101a9906109bc565b60405180910390fd5b600160003373ffffffffffffffffffffffffffffffffffffffff1673ffffffffffffffffffffffffffffffffffffffff16815260200190815260200160002060009054906101000a900460ff161561023f576040517f08c379a000000000000000000000000000000000000000000000000000000000815260040161023690610a28565b60405180910390fd5b6002805490508110610286576040517f08c379a000000000000000000000000000000000000000000000000000000000815260040161027d90610a94565b60405180910390fd5b6002818154811061029a57610299610ab4565b5b906000526020600020906002020160010160008154809291906102bc90610b12565b919050555060018060003373ffffffffffffffffffffffffffffffffffffffff1673ffffffffffffffffffffffffffffffffffffffff16815260200190815260200160002060006101000a81548160ff02191690831515021790555050565b60606002805480602002602001604051908101604052809291908181526020016000905b8282101561040d578382906000526020600020906002020160405180604001604052908160008201805461037290610b89565b80601f016020809104026020016040519081016040528092919081815260200182805461039e90610b89565b80156103eb5780601f106103c0576101008083540402835291602001916103eb565b820191906000526020600020905b8154815290600101906020018083116103ce57829003601f168201915b505050505081526020016001820154815250508152602001906001019061033f565b50505050905090565b60016020528060005260406000206000915054906101000a900460ff1681565b6002818154811061044657600080fd5b906000526020600020906002020160009150905080600001805461046990610b89565b80601f016020809104026020016040519081016040528092919081815260200182805461049590610b89565b80156104e25780601f106104b7576101008083540402835291602001916104e2565b820191906000526020600020905b8154815290600101906020018083116104c557829003601f168201915b5050505050908060010154905082565b60008054906101000a900473ffffffffffffffffffffffffffffffffffffffff1681565b600360009054906101000a900460ff1681565b60008054906101000a900473ffffffffffffffffffffffffffffffffffffffff1673ffffffffffffffffffffffffffffffffffffffff163373ffffffffffffffffffffffffffffffffffffffff16146105b7576040517f08c379a00000000000000000000000000000000000000000000000000000000081526004016105ae90610c2c565b60405180910390fd5b6000600360006101000a81548160ff021916908315150217905550565b600080fd5b6000819050919050565b6105ec816105d9565b81146105f757600080fd5b50565b600081359050610609816105e3565b92915050565b600060208284031215610625576106246105d4565b5b6000610633848285016105fa565b91505092915050565b600081519050919050565b600082825260208201905092915050565b6000819050602082019050919050565b600081519050919050565b600082825260208201905092915050565b60005b838110156106a2578082015181840152602081019050610687565b60008484015250505050565b6000601f19601f8301169050919050565b60006106ca82610668565b6106d48185610673565b93506106e4818560208601610684565b6106ed816106ae565b840191505092915050565b610701816105d9565b82525050565b6000604083016000830151848203600086015261072482826106bf565b915050602083015161073960208601826106f8565b508091505092915050565b60006107508383610707565b905092915050565b6000602082019050919050565b60006107708261063c565b61077a8185610647565b93508360208202850161078c85610658565b8060005b858110156107c857848403895281516107a98582610744565b94506107b483610758565b925060208a01995050600181019050610790565b50829750879550505050505092915050565b600060208201905081810360008301526107f48184610765565b905092915050565b600073ffffffffffffffffffffffffffffffffffffffff82169050919050565b6000610827826107fc565b9050919050565b6108378161081c565b811461084257600080fd5b50565b6000813590506108548161082e565b92915050565b6000602082840312156108705761086f6105d4565b5b600061087e84828501610845565b91505092915050565b60008115159050919050565b61089c81610887565b82525050565b60006020820190506108b76000830184610893565b92915050565b600082825260208201905092915050565b60006108d982610668565b6108e381856108bd565b93506108f3818560208601610684565b6108fc816106ae565b840191505092915050565b610910816105d9565b82525050565b6000604082019050818103600083015261093081856108ce565b905061093f6020830184610907565b9392505050565b61094f8161081c565b82525050565b600060208201905061096a6000830184610946565b92915050565b7f566f74696e6720697320636c6f73656400000000000000000000000000000000600082015250565b60006109a66010836108bd565b91506109b182610970565b602082019050919050565b600060208201905081810360008301526109d581610999565b9050919050565b7f596f75206861766520616c726561647920766f74656400000000000000000000600082015250565b6000610a126016836108bd565b9150610a1d826109dc565b602082019050919050565b60006020820190508181036000830152610a4181610a05565b9050919050565b7f496e76616c69642063616e64696461746520696e646578000000000000000000600082015250565b6000610a7e6017836108bd565b9150610a8982610a48565b602082019050919050565b60006020820190508181036000830152610aad81610a71565b9050919050565b7f4e487b7100000000000000000000000000000000000000000000000000000000600052603260045260246000fd5b7f4e487b7100000000000000000000000000000000000000000000000000000000600052601160045260246000fd5b6000610b1d826105d9565b91507fffffffffffffffffffffffffffffffffffffffffffffffffffffffffffffffff8203610b4f57610b4e610ae3565b5b600182019050919050565b7f4e487b7100000000000000000000000000000000000000000000000000000000600052602260045260246000fd5b60006002820490506001821680610ba157607f821691505b602082108103610bb457610bb3610b5a565b5b50919050565b7f4f6e6c7920746865206f776e65722063616e2063616c6c20746869732066756e60008201527f6374696f6e000000000000000000000000000000000000000000000000000000602082015250565b6000610c166025836108bd565b9150610c2182610bba565b604082019050919050565b60006020820190508181036000830152610c4581610c09565b905091905056fea26469706673582212203b974930210cd4af6783b70d7ae6cc3e3a46694f8f635c734ebabafa1be5774664736f6c63430008140033",
  "linkReferences": {},
  "deployedLinkReferences": {}
}